:020000040800F2
:1000000000000520195500086D5300086F530008C3
:100010007153000873530008755300080000000076
:1000200000000000000000000000000077530008FE
:1000300079530008000000007B5300087D5300083E
:100040006955000869550008695500086955000898
:100050006955000869550008695500086955000888
:100060006955000869550008695500086955000878
:100070006955000869550008695500086955000868
:100080006955000869550008695500086955000858
:100090006955000869550008695500086955000848
:1000A0006955000869550008695500086955000838
:1000B0006955000869550008695500086955000828
:1000C0006955000869550008695500086955000818
:1000D0006955000869550008695500086955000808
:1000E00069550008695500086955000869550008F8
:1000F00069550008695500086955000869550008E8
:1001000069550008695500086955000869550008D7
:1001100069550008695500086955000869550008C7
:1001200069550008695500086955000869550008B7
:1001300069550008695500086955000869550008A7
:100140006955000869550008695500086955000897
:100150006955000869550008695500086955000887
:100160006955000869550008695500086955000877
:10017000695500086955000869550008000000002D
:100180006955000869550008695500086955000857
:100190006955000869550008695500086955000847
:1001A0006955000869550008695500086955000837
:1001B0006955000869550008695500086955000827
:0801C0006955000869550008AB
:1001D00010B5054C237833B9044B13B10448AFF381
:1001E00000800123237010BDF404002000000000F3
:1001F000588F00080C4B43B10C480D4910B5AFF3B4
:1002000000800C48036823B910BD0A48036833B95D
:100210007047094B002BF7D0BDE810401847064B3C
:10022000002BF5D0184700BF00000000588F0008D1
:10023000F8040020F40400200000000009B90020A8
:100240007047C0F3C613C0F38232D318420D59432E
:1002500002F00302C91DC908C900430CD14003F0D4
:100260000F03042B0BD0082B01BFC0F3C612C0F341
:100270008230821801EB0221C91DC8087047C0F303
:10028000C612C0F38230821801EB0211C91DC808E2
:10029000704710B5044606F05DFA204610BDDFF841
:1002A0005C0840F249420168490849000160DFF8F2
:1002B00050080168C1F30A01914215D101200022C2
:1002C0000021104308431DD0DFF8381801228A604E
:1002D00088680028FCD1DFF83028DFF830380A6061
:1002E0000968994226D0FEE7002040F2514C614552
:1002F00008BF0122E4D0002240F252439942DFD1EC
:100300000121DEE7DFF808080168C1F30A01B1F551
:100310008A6F0FD1DFF8FC1701228A6088680028F5
:10032000FCD1DFF8E427DFF8E4370A600968994276
:1003300000D0FEE77047DFF8C40740F24942016889
:10034000490849000160DFF8B8070168C1F30A01F4
:10035000914215D1012000220021104308431DD0F5
:10036000DFF8A01701228A6088680028FCD1DFF836
:100370009827DFF898370A600968994226D0FEE787
:10038000002040F2514C614508BF0122E4D0002218
:1003900040F252439942DFD10121DEE7DFF87007D6
:1003A0000168C1F30A01B1F58A6F0FD1DFF8641754
:1003B00001228A6088680028FCD1DFF84C27DFF82A
:1003C0004C370A600968994200D0FEE7A3A0704745
:1003D000DFF8280740F249420168490849000160F6
:1003E000DFF81C070168C1F30A01914215D1012011
:1003F00000220021104308431DD0DFF80817012216
:100400008A6088680028FCD1DFF8FC26DFF8FC361B
:100410000A600968994226D0FEE7002040F2514C5C
:10042000614508BF0122E4D0002240F252439942C4
:10043000DFD10121DEE7DFF8D8060168C1F30A0148
:10044000B1F58A6F0FD1DFF8CC1601228A60886877
:100450000028FCD1DFF8B026DFF8B0360A60096862
:10046000994200D0FEE70FF2C46000687047DFF8E1
:100470008C0640F249420168490849000160DFF8F2
:1004800080060168C1F30A01914215D101200022C2
:100490000021104308431DD0DFF8681601228A604E
:1004A00088680028FCD1DFF86026DFF860360A6033
:1004B0000968994226D0FEE7002040F2514C614580
:1004C00008BF0122E4D0002240F252439942DFD11A
:1004D0000121DEE7DFF838060168C1F30A01B1F552
:1004E0008A6F0FD1DFF82C1601228A6088680028F5
:1004F000FCD1DFF81426DFF814360A600968994247
:1005000000D0FEE70FF2286000687047DFF8EC05C6
:1005100040F249420168490849000160DFF8E005FE
:100520000168C1F30A01914215D101200022002186
:10053000104308431DD0DFF8CC1501228A6088687B
:100540000028FCD1DFF8C025DFF8C0350A60096853
:10055000994226D0FEE7002040F2514C614508BF89
:100560000122E4D0002240F252439942DFD101211E
:10057000DEE7DFF89C050168C1F30A01B1F58A6F77
:100580000FD1DFF8901501228A6088680028FCD11D
:10059000DFF87425DFF874350A600968994200D0E5
:1005A000FEE70FF290500068704730B420B1016848
:1005B000DFF86425914200D00020DFF8401540F2BA
:1005C00049440B685B085B000B60DFF834150A6870
:1005D000C2F30A02A24215D10121002300221943CD
:1005E00011431DD0DFF81C25012393609168002979
:1005F000FCD1DFF81435DFF8144513601268A2420D
:1006000026D0FEE7002140F25145AA4208BF01234F
:10061000E4D0002340F25244A242DFD10122DEE7BF
:10062000DFF8EC140A68C2F30A02B2F58A6F0FD140
:10063000DFF8E0240123936091680029FCD1DFF802
:10064000C834DFF8C84413601268A24200D0FEE745
:1006500030BC7047DFF8C014016070470000000034
:1006600008467047704730B420B10168DFF8A8240D
:10067000914200D00020DFF8841440F249440B6816
:100680005B085B000B60DFF878140A68C2F30A02AB
:10069000A24215D1012100230022194311431DD08C
:1006A000DFF860240123936091680029FCD1DFF812
:1006B0005834DFF8584413601268A24226D0FEE78F
:1006C000002140F25145AA4208BF0123E4D0002393
:1006D00040F25244A242DFD10122DEE7DFF83014BB
:1006E0000A68C2F30A02B2F58A6F0FD1DFF8242438
:1006F0000123936091680029FCD1DFF80C34DFF806
:100700000C4413601268A24200D0FEE720B90FF239
:100710003840006830BC70470C3030BC00F01CBA68
:1007200000281CBF0C3000F01CBA7047F0B581B037
:10073000DBB2069D0446079816462D0445EA03657C
:1007400045EA00250FF204400768FFF7A8FD24B929
:100750000FF2FC3001B00068F0BDDFF8BC1331606F
:10076000266000F0F7F910B90FF2CC300EE0DFF898
:10077000AC138D4203D30FF2C432176807E00FF2B7
:10078000C03000F003FA20B90FF2B830076800213A
:100790002160384601B0F0BD70B430B10168DFF8B7
:1007A0007823914208BF024600D00022DFF84C13A4
:1007B00040F249440B685B085B000B60DFF84013B4
:1007C0000B68C3F30A03A34215D1012100240023BF
:1007D000214319431DD0DFF82C3301249C60996814
:1007E0000029FCD1DFF82043DFF820531C601B6890
:1007F000AB4224D0FEE7002140F25146B34208BF8D
:100800000124E4D0002440F25245AB42DFD1012361
:10081000DEE7DFF8FC120B68C3F30A03B3F58A6F57
:100820000DD1DFF8F03201249C6099680029FCD1D9
:10083000B54CB64D1C601B68AB4200D0FEE702B160
:10084000002070BC70472DE9F0470A4618B10168D6
:10085000B14B994200D00020A84940F249450C68AC
:10086000640864000C60A6490B68C3F30A03AB423A
:1008700012D1012100240023214319431AD0A14B96
:1008800001249C6099680029FCD19F4C9F4D1C60FD
:100890001B68AB4222D0FEE7002140F25146B34232
:1008A00008BF0124E7D0002440F25245AB42E2D118
:1008B0000123E1E796490B68C3F30A03B3F58A6F96
:1008C0000CD1944B01249C6099680029FCD18E4C7A
:1008D0008E4D1C601B68AB4200D0FEE748B30AB9DE
:1008E000112206E0D16909B9132202E0D16839B9B1
:1008F000122210210C3000F034F90020BDE8F087FE
:1009000000F1140100F1240778CA81E8780092E828
:10091000005387E80053C26B4FF0030AC0F808A0E9
:100920003AB1916850608A4218BF002918BF0A4640
:10093000F7D1BDE8F0872DE9F04F83B028B1036807
:10094000754CA34208BF054600D000256B4840F215
:10095000494403685B085B00036069480368C3F3AC
:100960000A03A34212D1012000240023204318438C
:100970001AD0644B01249C6098680028FCD1624C1A
:10098000624E1C601B68B34222D0FEE7002040F29A
:100990005147BB4208BF0124E7D0002440F2524631
:1009A000B342E2D10123E1E759480368C3F30A03E4
:1009B000B3F58A6F0CD1574B01249C6098680028CE
:1009C000FCD1514C514E1C601B68B34200D0FEE775
:1009D000002D4BD0D5F8088008F00303032B02D07C
:1009E000302211213EE00F001CBFF868002837D0EC
:1009F000788808B9212234E014000BD0E16861B393
:100A0000618811B9212213212CE0884202D02122D1
:100A1000022127E05FEAC8504FEA582808F0010891
:100A2000A96B4CBF0220002048EA0008686B0A68E6
:100A30000668009271683068FFF700FC019000982A
:100A400041680068FFF7FAFB002C0246F96814BF02
:100A5000D4F80CB04FF0000B0CE01722132101E08A
:100A60001722122105F10C0000F07BF8002003B0E2
:100A7000BDE8F08F18F0020014BFDFF8A490DFF893
:100A8000A4905FEAC8737B884CBFDFF894A0DFF8BE
:100A900098A000272B826F8208B9B160F16044B141
:100AA0005FEAC87005D4009BC3F808B00098C0F88E
:100AB0000CB06B8A288A83421CD22C463546019E94
:100AC00017468846A86832464146B044C847A860E1
:100AD000204600F0DDF800983A4681685846D04735
:100AE00000EB070B608A218A401C608280B288423A
:100AF000E8D32546688A03B0BDE8F08F002000E007
:100B0000002004E000300240C2A507F4CDB5E8B5EE
:100B10000010005C004C02580001C0A1010001015E
:100B20009302000861060008650600080303000040
:100B30000100000001010000301000000110000061
:100B40000384048402100000101000000000000064
:100B500010100000012070470146002208680A605A
:100B6000704703785FEA036C04D141EA0221016017
:100B7000012070470020704710B50446E16888479F
:100B8000A068A04208BF002010BD000000B581B0E1
:100B900060B10178032909D15FF0040263A105F077
:100BA00005FE401E8041C00F01B000BD002001B015
:100BB00000BD000042F21172811A012984BFC91ED2
:100BC0000D2901D90F3945D1801A21D0401E21D0DD
:100BD000801E21D0401E21D0401E21D0401E21D099
:100BE000401E21D0401E21D0401E21D0401E21D0C9
:100BF000401E21D0401E21D0401E21D0401E21D0B9
:100C0000401E21D0401E21D0801E21D012A070474E
:100C100012A0704712A0704727A0704728A0704705
:100C200010A0704710A0704727A070470FA0704712
:100C300027A0704728A070472CA070472DA07047B0
:100C40000BA070472DA070472EA0704730A07047B2
:100C500034A0704700A070470000000041444400E9
:100C6000424E0000475255004C524E004E4C000080
:100C7000534D000042F21171401A012884BFC01E7A
:100C80000D2801D90F3801D101207047002070478D
:100C900030B581B00446E06B58B12064256CE9683A
:100CA00028468847A868A84208BF0020002820647A
:100CB000F4D101B030BD0000434F4E563244000025
:100CC00044454E53450000004C53544D0000000075
:100CD0004E4F524D000000004F5054494D495A4567
:100CE000445F434F4E563244000000005045524D81
:100CF00055544500504F4F4C0000000053504C4994
:100D00005400000054494D455F44454C4159000092
:100D100054494D455F444953545249425554454402
:100D200000000000434F4E434154000003840484FC
:100D30002DE9F04F81B00E9E0D9D139C0A98DDF8B1
:100D40002C90DDF83CB0DDF840C0DDF844E0371B06
:100D50008842DDF8488007FB09F70097A5EB040AF5
:100D600005FB0CF5ABEB0E0B06FB09F706FB0C863F
:100D70000CBF9FED820AB7EE000A09FB0AFA06FBD8
:100D800009F603EB86030C9E04FB09F409FB05F945
:100D9000002E0BFB07FB02EB89094DD00D461946CF
:100DA00032460346BEF1010FD3ED000A60EE800A21
:100DB0004E4639DB7046DDF800C0012C2CDB14F008
:100DC00003080AD091ED001A091DD6ED001A361D50
:100DD000B8F1010841EE210AF4D1A70800F01C8007
:100DE00091ED002A96ED001AD1ED011AD6ED012AF7
:100DF00042EE010A41EEA20A91ED022A96ED021A94
:100E0000D1ED031A1031D6ED032A10367F1E42EEC3
:100E1000010A41EEA20AE3D1401E06EB8A0601EB6D
:100E20008C01CAD1CDF800C0C5ED000A2D1D1B1DD7
:100E3000521E01EB8B01B5D101B0BDE8F08F00006F
:100E40002DE9F24F84B01146149FDDF858B00E9A88
:100E5000119D1398159CDDF85CC0DDF83CA0109E38
:100E6000DDF84890001BA5EB0C0E09FB07BBA9EBB6
:100E70000C0803EB8B0B049BB6FBFAF60AFB0EFE89
:100E80009A4200FB09F00CBF9FED3C0AB7EE000A46
:100E90007D430AFB05F501EB8501002501EB8A077F
:100EA0000097B94266D20E920396039A002A5DD04B
:100EB0000E9B049F029003EB8506134607EB850704
:100EC0000191012CD6ED000A60EE800ADDF8049055
:100ED00040DB2246BCF1010F36DB1CF003010BD0D6
:100EE000491E9BED001AD9ED001A0BF1040B41EEDF
:100EF000210A09EB8A09F3D15FEA9C0000F0248003
:100F000009EB8A019BED001AD9ED001A401E41EE53
:100F1000210ADBED011A91ED001A01EB8A0141EE85
:100F2000810A9BED021AD1ED001A01EB8A0141EE14
:100F3000210ADBED031A0BF1100B01EB8A0991ED8D
:100F4000001A41EE810ADBD1521E09EB8E090BEB30
:100F5000880BBFD16D1C0298C7ED000A3F1D361DDE
:100F60005B1E0BEB800BACD102980199009A091D16
:100F700091429AD305B0BDE8F08F00000000000058
:100F80002DE9F24F84B09246DDF84CE0DDF858C010
:100F9000189810990F9F149AAEEB0C0E1E46129CD7
:100FA000159DB1FBF2F91199CDF80C90B7FBF2F356
:100FB00004FB03FBA7EB0309091AA4EB0008794320
:100FC0000EFB0BFEDDF85CB008FB03F804FB05B478
:100FD000DDF810B05C4306EB84040E9E5E45DDF840
:100FE00044B00BFB05F50CBF9FED3D0AB7EE000AC0
:100FF0006F430AEB87054FF0000A002A6DD000927C
:10100000039A002A63D0049A0E9ECDF858C002EBD2
:101010008A07039ACDF808E006EB8A06CDF804505B
:10102000DDF858E0D6ED000A60EE800A019DBEF1C1
:10103000010F3BDB012832DB4FEA000C05EB830B91
:101040005D4527D294ED001A241DD5ED001A2D1D03
:101050005D4541EE210A1DD294ED002A241D95ED37
:10106000001A2D1D5D4542EE010A13D2D4ED001A7F
:10107000241D95ED002A2D1D5D4541EE820A09D201
:1010800094ED001A241DD5ED001A2D1D5D4541EE8D
:10109000210AD7D3BCF1010C05EB8905CED1BEF1F5
:1010A000010E05EB810504EB8804C3D1361DDDF884
:1010B00008C0C7ED000A3F1D521E04EB8C040AF164
:1010C000010AADD1DDF858C0DDF808E0019D009FB0
:1010D00005EB83057F1E009792D105B0BDE8F08F28
:1010E000000000002DE9F04F8DB0169C04B90C46AD
:1010F0001E9F1D9EDDF87080DDF880E01F9D0B9027
:10110000BF1B1798B8F1010FDDF860C0AEEB050EFC
:10111000DDF86490DDF868A0DDF86CB014D1CDF88E
:1011200024E00895079701900B980696CDF814B027
:10113000CDF810A0CDF80C90CDF808C00094FFF7C2
:10114000F7FD0DB0BDE8F08F804514D1CDF824E057
:101150000895079701900B980696CDF814B0CDF836
:1011600010A0CDF80C90CDF808C00094FFF768FEF1
:101170000DB0BDE8F08FCDF828E0099508970190F3
:101180000B980796CDF81880CDF814B0CDF810A0C4
:10119000CDF80C90CDF808C00094FFF7F1FE0DB02B
:1011A000BDE8F08F70470000F0B50446059803EBEA
:1011B00080059FEDD90A203D08282ED22035AB426C
:1011C00024D2087893ED001A02EB8006181DA8427D
:1011D000D6ED000A00EE810A18D24B7890ED001A85
:1011E00002EB8306001DA842D6ED000A00EE810A3C
:1011F0000CD28B78C91C02EB8306031DAB4290ED29
:10120000001AD6ED000A00EE810ADAD3D4ED001AF6
:1012100031EE800A84ED000AF0BD01F003000328DE
:10122000F4D8DFE800F00335404BEFE79D4280F053
:10123000D4802035AB42E9D20E78181D02EB860728
:10124000A84293ED001AD7ED000A00EE810ADDD224
:101250004B7890ED001A02EB8306001DA842D6EDF4
:10126000000A00EE810AD1D28B78C91C02EB8306FA
:10127000031DAB4290ED001AD6ED000A00EE810A84
:10128000DAD3D4ED001A31EE800A84ED000AF0BD05
:1012900011F8010B93ED001A02EB80061B1DD6ED31
:1012A000000A00EE810A11F8010B93ED001A02EB1F
:1012B00080061B1DD6ED000A00EE810A11F8010B15
:1012C00093ED001A02EB80061B1D9D42D6ED000A2D
:1012D00000EE810A4FD3CF7891F800E002EB870C43
:1012E0008F7803F1100093ED004A93ED013A93EDEE
:1012F000022ADCED000A02EB870C4F7893ED031A0B
:101300000B79DCED001A02EB870C02EB8E07D7EDB0
:10131000003A4F7903EE840A02EB870EDCED002AD7
:1013200002EB830C02EE830A8B7901EE820ACF79FD
:1013300000EE810A0831DCED000A02EB830C9EED21
:10134000001A02EB870E90ED004A00F11003D0ED79
:10135000013A9D4200EE840ADCED001A90ED023A5B
:1013600001EE230A9EED002AD0ED032A01EE830A46
:1013700002EE220AAFD22035AB42BFF447AF087865
:1013800093ED001A02EB8006181DA842D6ED000A64
:1013900000EE810ABFF43AAF4B7890ED001A02EBF1
:1013A0008306001DA842D6ED000A00EE810ABFF4B4
:1013B0002DAF8B78C91C02EB8306031DAB4290ED69
:1013C000001AD6ED000A00EE810AD8D3D4ED001A37
:1013D00031EE800A84ED000AF0BDCF7891F800E08C
:1013E00002EB870C8F7803F1100093ED004A93ED28
:1013F000013A93ED022ADCED000A02EB870C4F78EC
:1014000093ED031A0B79DCED001A02EB870C02EB6B
:101410008E07D7ED003A4F7903EE840A02EB870E70
:10142000DCED002A02EB830C02EE830A8B7901EEDD
:10143000820ACF7900EE810A0831DCED000A02EB66
:10144000830C9EED001A02EB870E90ED004A00F12E
:101450001003D0ED013A9D4200EE840ADCED001A43
:1014600090ED023A01EE230A9EED002AD0ED032A08
:1014700001EE830A02EE220AAFD2DAE6F0B4049C4F
:101480009FED250A65086D0003EB8505AB422FD261
:1014900011F8016B93ED002A93ED011A083306F061
:1014A0000F07360902EB8606AB4202EB870CD6ED3E
:1014B000001A01EE820ADCED000A00EE810A17D262
:1014C00011F8016B93ED002A93ED011A083306F031
:1014D0000F07360902EB8606AB4202EB870CD6ED0E
:1014E000001A01EE820ADCED000A00EE810ACFD379
:1014F000E40709D5097893ED001A090902EB810286
:10150000D2ED000A00EE810AD0ED001A31EE800A19
:1015100080ED000AF0BC7047000000002DE9F04F9C
:101520009BB00546686900680168426880680F687A
:10153000D2F800A0D0F800E04068BA680D92DAF85E
:101540000830002801932B8CDAF81010DAF80C9090
:101550003E69D7F80C800C93AC8C0F942A8DEC6A02
:10156000DEF80CB0CDF838B0DEF8083000933F68F4
:10157000DEF800E0AB69A4B2D7F808C01ABF006873
:1015800087680027DAF80000DEF808E0D0F808A045
:10159000E869002814BF0546DFF86C57644200294B
:1015A0000B946FD05242CDF858901992DDF838B0B4
:1015B000159610910B9815990B9A169CDDF864906E
:1015C0004042D8BF0020891A594508FB029228BF23
:1015D0005946002C4ED00294019CCDF838B0009EA4
:1015E00014939346CDF84CC0CDF848E0119718906D
:1015F0001791029FD9F10000A8EB0901DDF844C062
:10160000189ACDF800C0DDF834C0D8BF0020B14230
:1016100009900792149B06930D9A28BF31460A91B0
:10162000179908915844DDF84CE00E990192129BED
:101630000CFB00F005910EEB80020496CDF80C80B7
:10164000514602940020FFF74DFD22465146504678
:101650000AEB840AA8470C997F1E89448B44C9D1A0
:101660000194DDF838B00096149BDDF84CC0DDF82D
:1016700048E0119F0B990F9A109C51180B91641E12
:10168000109497D11BB0BDE8F08F00002DE9F04F0A
:10169000B5B0024650690068016843688068D1F8B7
:1016A00000B02DA91F68D0F800A043680BF1140406
:1016B00094E8605081E86050DBF80880002BCDF89A
:1016C0000C80B96802913869FC681C94DBF81050F2
:1016D0000D95DBF80C400194158C1295948C1194A7
:1016E000158D1095948DD2F83080D2F834E095693C
:1016F0000C95DAF808600096DAF80C10D2F83890F9
:10170000CDF83C90D66B1B96D2F84090CDF86890FF
:10171000566C1E96D7F820C0956CD66C0CFB00FC5E
:10172000CDF810C0D7F81C90CDF86490DBF800B06D
:10173000DBF808C0CDF860C0DAF800A0DAF808B02D
:10174000CDF82CB01ABF1B68D3F808B04FF0000BCF
:10175000D369002B12BF0E93DFF8AC95CDF838900B
:10176000126DDDF804901792009B109ADDF848C0C6
:10177000DDF810A07642A9EB0309914419FA88F22A
:10178000DDF83480D7F80090B2FBFCF3119A5B1CB3
:10179000A8EB0108A04418FA8EFE0028BEFBF2FC5C
:1017A000D9F808E00CF1010CF244CDF858A000F093
:1017B00025816D42CDF8ACC0349515962590159DC8
:1017C0002B98349F002D2A46CCBFA9464FF0000924
:1017D0001B9DAA18904232BF8446DDF854C0AC4429
:1017E0001C98002800F00181A9EB0C0A2C94CDF87C
:1017F000CCA0119A2693CDF89090CDF8A4C0149760
:101800002390149C2698299DDDF8CCA0F0464FF03B
:101810000009002C2346CCBF264600260F9CE31867
:10182000984232BF0346149BE3182498F41A04FB31
:101830000AFAA84280F2CB8002FB00F728462C9CD3
:10184000249D3C1B11922296451B129828931394B9
:101850002095139A0D9B139C5242D8BF00221B1B4C
:101860008B42109B3ABF0D9E351B0D46229C229E3B
:101870004443E31A289CA64280F29E80AD1AA4EB52
:10188000060C3295139D309ECDF89CB0CDF884A007
:10189000039C1290009F7543019E3195029D1D91FE
:1018A0009A46CDF8A8E0E3461F92319ADDF8BCE0F5
:1018B000DAF10001A6EB0A00D8BF002101EB0A0C07
:1018C000B84218980EFB0C220244279834BFA6EBAE
:1018D0000A033B4600B94046DDF830E05B1ADDF80C
:1018E000C8C0BEF1010F16D10993DDF874E0CDF840
:1018F0001CC0DDF87CC00B9B089100904146CDF8E0
:1019000018C00020CDF814E00497039602950194C6
:10191000FFF70EFA2AE0A64512D109931D9B089104
:101920001F9905930B9B0691414600900020CDF82E
:101930001CC00497039602950194FFF781FA15E005
:101940000A930C9B09911F9906930B9BCDF820C01D
:10195000DDF874C00791414600900020CDF814C016
:101960000497039602950194FFF70AFB0E9B2A4603
:101970004146404609F1010998472198DDF85CC0CD
:101980002B462A464146484518BF002000902A9819
:10199000E0471299BBF1010BDDF858808A4484D1ED
:1019A0000394129802951D990196DDF89CB000975A
:1019B000DDF8A8E0DDF884A0139B119C209DE318BE
:1019C00013936D1E20957FF444AF1290119A1498D2
:1019D0001A9B239D199C181814906D1EA6442395DC
:1019E0007FF40FAF11922C9C269B159A1E9D259E6D
:1019F000AA181592761E25967FF4E1AE35B0BDE8A3
:101A0000F08F00002DE9F04F89B040694FF0000ED3
:101A1000006801684268806805680E684468176855
:101A2000F868D6F808803A69B96850432A6813689C
:101A30004FEA535A0AF0030AC3F3C6195B0C03F0CA
:101A40000F0329FA0AF9042BCDF80490366814BF65
:101A5000082BD2F80CE03A680028AB69D2F808905D
:101A6000B26809EB810667D0079505940691CDF819
:101A700010E000960390079805990468A06809B1E2
:101A80000D68A968049C94B9009EB14549D2B2463C
:101A900046464F461C46154681468846B8F1000F1B
:101AA00019BF58F8040B02900022029229E0009C12
:101AB000A14536D2049C1D46164682468B46009FA1
:101AC000BBF1000F334602A819BF5BF8041B02915B
:101AD000002202920199CDF8008022460429514645
:101AE00002D1FFF7CBFC01E0FFF75EFB029AAA44AC
:101AF00049F8042BB945E3D304942B4632460097AA
:101B00000FE033462A46494602A800F0B7FC029887
:101B1000A14447F8040B5745C0D3B0462346B94605
:101B20002A460099069C02EB880201EB8405039982
:101B30000095491E03919ED109B0BDE8F08F0000C9
:101B40002DE9F04F8AB09A461546149BD0F804C090
:101B50006C6800948B46D3F804E0CDF808E0048864
:101B6000BBF80010BBF802204088B5F800E06F8891
:101B70000025B3F800905E884FFA8AF3DBF804B0D2
:101B8000002BCDF814B0CDF810B00CBFA0468046A5
:101B9000012F0CBF00230423BEF1010F04D1012F3C
:101BA00007D0C6F1000E05E0012F08BF4FF0010E6F
:101BB00000D0AE464FFA8AFB0FFA8EFEBBF1000F43
:101BC000CDF804E00CBFA3468346CB4516D19DF962
:101BD0004CE0BEF1000F0CBF91468946B1450DD1D6
:101BE0004FFA8AFBBBF1000F0CBF8346A346BEF140
:101BF000000F0CBF0E461646B34570D06FF00200C2
:101C00000AB0BDE8F08F059D9700089786000796FB
:101C1000CDF818C0DDF810C0ADF802404FEA080456
:101C20004FFA8AF6002E9FED371ADDF818800CBFA8
:101C30000646BDF80260B6B14FFA8AF7002FD8ED1C
:101C4000001A95ED002A0CBF0427079FBEF1000F74
:101C5000B84401EE821A0CBF089F0427ED19761EC6
:101C6000B7B2002FE8D1641EA4B2BEF1000F20EE7F
:101C7000011ADBED001A9B4400EEA11A89ED001A4F
:101C800009F104090EBF151B0D1B5543002C0CEB6D
:101C90008505C5D1CDF810C0DDF80C90099E4FFA2E
:101CA0008AFCBCF1000F069DBDF80240B144CDF89E
:101CB0000C90BDF800900CBF4FEA800C4FF0040C64
:101CC000AC44019D0BEB850BA9F10106ADF800605A
:101CD000BDF8005055B900200AB0BDE8F08FDDF81E
:101CE00000B00395ADF80080CDF82490BEF1000F50
:101CF000DDF8089003AE358809EB85090CBF9046E6
:101D0000884680E700000000A5110008F0B58BB000
:101D1000416909680A6849680968156854689368E0
:101D20000A68CF68D1F810E004A99668ADF820E001
:101D3000ADF8227009962E68EF682D69B668ADF887
:101D40001850ADF81A7007962568E6682469AD68E2
:101D5000ADF81040ADF8126005951C68DD681B6990
:101D6000A468ADF80830039408ACADF80A500194AB
:101D700090F92120009290F92030D0ED070A02AAB4
:101D800090ED060A06A8FFF7DBFE0BB0F0BD0000E1
:101D90002DE9F04114460F46022C06462DED028B2C
:101DA00097ED008ADFEDC38A3DD3611E3A1D11F025
:101DB00003000CD092ED000A02F10402B4EE480ACE
:101DC000F1EE10FA58BFB0EE408A401EF2D18908F9
:101DD00000F02B8092ED000AB4EE480AF1EE10FA02
:101DE00058BFB0EE408A92ED010AB4EE480AF1EE17
:101DF00010FA58BFB0EE408A92ED020AB4EE480ADB
:101E0000F1EE10FA58BFB0EE408A92ED030A02F1EB
:101E10001002B4EE480AF1EE10FA58BFB0EE408A54
:101E2000491ED7D101E0002C40D0B0464FEA04054E
:101E300097ED000A3F1D30EE480A03F04BFC6D1E83
:101E400088ED000A78EE808A08F10408F0D114F0D9
:101E50000300B7EE000A80EE280A09D0D6ED000A8A
:101E6000401E60EE800AC6ED000A06F10406F5D1B8
:101E7000A4081BD0D6ED000A641E60EE800AC6EDF1
:101E8000000A96ED011A21EE001A86ED011AD6ED30
:101E9000020A96ED031A60EE801A61EE000AC6EDA2
:101EA000021AC6ED030A06F11006E3D1BDEC028B5F
:101EB000BDE8F0812DE9F0430C4681B004EB8209C6
:101EC00080461D46089E099F4C450AD22A46214657
:101ED00004EB86044046FFF75BFF08EB87084C45A0
:101EE000F4D301B0BDE8F08370B50D46044605EBB0
:101EF0008206B54280F00A8095ED000A2D1D03F0A0
:101F00008DFB84ED000A241DB542F5D370BD0000A1
:101F100070B50D46044605EB8206B54280F014808C
:101F200095ED000A2D1DB1EE400A03F0D3FBF7EE4C
:101F3000000A70EE200AB7EE001A81EE201A84ED36
:101F4000001A241DB542EBD370BD000001EB8202E4
:101F5000914216D24FF0FF3391ED000A8446B5EE60
:101F6000400A0CF10400F1EE10FACCBF9FEDBD0A5F
:101F700000EE103A091DB8EEC00A91428CED000A3D
:101F8000EAD3704701EB8202914216D2034691EDEB
:101F9000001A181DB4EE410AF1EE10FA58BFB0EE67
:101FA000401AB4EE601AF1EE10FA58BFB0EE601AA3
:101FB000091D914283ED001AE8D3704701EB8202BC
:101FC00091420FD2034691ED000A181DB5EE400A6A
:101FD000F1EE10FAD8BF9FED370A091D914283ED4B
:101FE000000AEFD37047000001EB820291421AD23F
:101FF000B1EE080A0346D1ED000A181DF5EE400ABD
:10200000F1EE10FA08DDF4EE400AF1EE10FA58BFD6
:10201000F0EE400A02E000BFDFED260A091D914202
:10202000C3ED000AE6D37047F0B50D4681B005EB6D
:10203000820604462DED048BF0EE408AB542B0EEE8
:10204000608A32D2274695ED009A3C1DB5EE409A43
:10205000F1EE10FAB0EE490A4CBFDFED169AF0EE41
:10206000499A03F037FBFFEE000A30EE200A20EE1B
:10207000280AB5EE400AF1EE10FA05DD9FED0D1AC3
:1020800079EE819A0AE000BFB0EE490A03F022FB24
:10209000FFEE000A30EE200A40EE289A2D1D28EEB1
:1020A000290AB54287ED000ACCD3BDEC048B01B000
:1020B000F0BD00000000000001EB8303994220D234
:1020C00091ED000A8446B5EE400A0CF10400F1EEF1
:1020D00010FA92ED001A4CBFDFED980AF0EE400ABC
:1020E000B1EE400AB5EE400AF1EE10FA48BF9FED9E
:1020F000930A091D121D994241EE400ACCED000AD7
:10210000DED3704730B44069046821680D686B689D
:10211000AA68E96828692D6853434B4361684343C3
:10212000A8680A68146800EB83029042A1680FD285
:102130000B4690ED000A191DB5EE400AF1EE10FABB
:10214000D8BF9FED7E0A001D904283ED000AEFD3B9
:1021500030BC704730B44069046821680D686B6812
:10216000AA68E96828692D6853434B436168434373
:10217000A8680A68146800EB83029042A1681AD22A
:10218000B1EE080A0B46D0ED000A191DF5EE400A23
:10219000F1EE10FA08DDF4EE400AF1EE10FA58BF45
:1021A000F0EE400A02E000BFDFED640A001D90423D
:1021B000C3ED000AE6D330BC70470000F0B581B033
:1021C0002DED048B416990ED078AD0ED068A0E68EB
:1021D000326814686568A368E268216920685D4315
:1021E000554384684D43716804EB85050A6810689F
:1021F000AC42866831D2374694ED009A3E1DB5EE6A
:10220000409AF1EE10FAB0EE490A4CBFDFED4B9A5E
:10221000F0EE499A03F05EFAFFEE000A30EE200A73
:1022200020EE280AB5EE400AF1EE10FA04DD9FED2B
:10223000431A79EE819A09E0B0EE490A03F04AFAAE
:10224000FFEE000A30EE200A40EE289A241D28EE08
:10225000290AAC4287ED000ACDD3BDEC048B01B056
:10226000F0BD00000100000070B4416980690D6894
:102270002A6816687468B368F268316936685C4326
:1022800054436A684C43B16813681D6803689868D2
:1022900001EB84039942AA681FD2144691ED000A0B
:1022A000221DB5EE400AF1EE10FA90ED001A4CBF77
:1022B000DFED220AF0EE400AB1EE400AB5EE400A28
:1022C000F1EE10FA48BF9FED1D0A091D001D99424D
:1022D00041EE400AC4ED000ADFD370BC7047000035
:1022E00030B44069046821680D686B68AA68E968C1
:1022F00028692D6853434B4361684343A8680A68C3
:10230000146800EB83029042A16815D24FF0FF33AE
:102310000C4690ED000A211DB5EE400AF1EE10FAD0
:10232000CCBF9FED070A00EE103A001DB8EEC00AC0
:10233000904284ED000AEBD330BC704700000000EF
:102340000100000070B4416990ED070AD0ED060A63
:102350000D682A6816687468B368F2683169306875
:102360005C43544380684C4369680A68136800EB17
:1023700084029042996816D20B4690ED001A191DFE
:10238000F4EE410AF1EE10FA58BFB0EE601AB4EE66
:10239000401AF1EE10FA58BFB0EE401A001D9042FC
:1023A00083ED001AE8D370BC7047000070B5406937
:1023B000056829680C686368A268E1682069246878
:1023C00053434B436968A4684343086804EB83069E
:1023D0000268B442956813D294ED000A241DB1EE50
:1023E000400A03F077F9F7EE000A70EE200AB7EE24
:1023F000001A81EE201A85ED001A2D1DB442EBD390
:1024000070BD000070B54069056829680C68636894
:10241000A268E1682069246853434B436968A46853
:102420004343086804EB83060268B442956809D206
:1024300094ED000A241D03F0F1F885ED000A2D1D2E
:10244000B442F5D370BD70B582B0406904682168AC
:102450000D68AA68019200926E681346E9682869BF
:10246000646872432D684A4342432068A96805683E
:10247000A868FFF71FFD02B070BD000030B504462C
:102480000846114681B01A46002500956B4600F0BB
:102490002DFF94ED000ADDED000A70EE200AC4ED78
:1024A000000A01B030BD0000F0EE400AF5EE400A2F
:1024B000F1EE10FA9FED280A01DBB1EEE00A704759
:1024C00003F008B903F084B903F0A8B8B5EE400AE8
:1024D000F1EE10FAD8BF9FED200A7047B5EE400A22
:1024E000F1EE10FAD8BF20EE200A704700B581B097
:1024F000B1EE400A03F0EEF8F7EE000A01B030EE5C
:10250000200AB7EE001A81EE000A00BDF0EE400A84
:102510009FED121AB6EE000A00EE810ADFED100AF6
:10252000B4EE600AF1EE10FA07DAB5EE400AF1EE09
:1025300010FA04D59FED080A7047B7EE000A7047FD
:10254000B5EE400AF1EE10FACCBF9FED060A9FED02
:10255000060AB8EEC00A704700000000CDCC4C3E21
:102560000100803F01000000FFFFFFFF81F00041FC
:1025700002E000BF83F0004330B54FEA41044FEA68
:10258000430594EA050F08BF90EA020F1FBF54EA03
:10259000000C55EA020C7FEA645C7FEA655C00F09F
:1025A000E2804FEA5454D4EB5555B8BF6D420CDD70
:1025B0002C4480EA020281EA030382EA000083EAF3
:1025C000010180EA020281EA0303362D88BF30BD93
:1025D00011F0004F4FEA01314FF4801C4CEA1131E9
:1025E00002D0404261EB410113F0004F4FEA033348
:1025F0004CEA133302D0524263EB430394EA050FD3
:1026000000F0A780A4F10104D5F1200E0DDB02FA41
:102610000EFC22FA05F2801841F1000103FA0EF2D5
:10262000801843FA05F359410EE0A5F120050EF19B
:10263000200E012A03FA0EFC28BF4CF0020C43FACC
:1026400005F3C01851EBE37101F0004507D54FF0D9
:10265000000EDCF1000C7EEB00006EEB0101B1F529
:10266000801F1BD3B1F5001F0CD349085FEA30006F
:102670004FEA3C0C04F101044FEA445212F5800F7A
:1026800080F09A80BCF1004F08BF5FEA500C50F117
:10269000000041EB045141EA050130BD5FEA4C0CFA
:1026A000404141EB010111F4801FA4F10104E9D183
:1026B00091F0000F04BF01460020B1FA81F308BF7A
:1026C0002033A3F10B03B3F120020CDA0C3208DD46
:1026D00002F1140CC2F10C0201FA0CF021FA02F121
:1026E0000CE002F11402D8BFC2F1200C01FA02F191
:1026F00020FA0CFCDCBF41EA0C019040E41AA2BFB6
:1027000001EB0451294330BD6FEA04041F3C1CDA7D
:102710000C340EDC04F11404C4F1200220FA04F09D
:1027200001FA02F340EA030021FA04F345EA030147
:1027300030BDC4F10C04C4F1200220FA02F001FA09
:1027400004F340EA0300294630BD21FA04F029468B
:1027500030BD94F0000F83F4801306BF81F4801124
:102760000134013D4EE77FEA645C18BF7FEA655C97
:1027700029D094EA050F08BF90EA020F05D054EA69
:10278000000C04BF1946104630BD91EA030F1EBF6E
:102790000021002030BD5FEA545C05D14000494172
:1027A00028BF41F0004130BD14F580043CBF01F565
:1027B000801130BD01F0004545F0FE4141F470014B
:1027C0004FF0000030BD7FEA645C1ABF1946104626
:1027D0007FEA655C1CBF0B46024650EA013406BF27
:1027E00052EA033591EA030F41F4002130BD00BFE6
:1027F00090F0000F04BF0021704730B54FF48064A3
:1028000004F132044FF000054FF0000150E700BF23
:1028100090F0000F04BF0021704730B54FF4806482
:1028200004F1320410F0004548BF40424FF000016F
:102830003EE700BF42004FEAE2014FEA31014FEAB2
:1028400002701FBF12F07F4393F07F4F81F0605101
:10285000704792F0000F14BF93F07F4F704730B570
:102860004FF4607401F0004521F0004120E700BF03
:1028700050EA010208BF704730B54FF000050AE08A
:1028800050EA010208BF704730B511F0004502D58B
:10289000404261EB41014FF4806404F132045FEA8D
:1028A000915C3FF4DCAE4FF003025FEADC0C18BF32
:1028B00003325FEADC0C18BF033202EBDC02C2F128
:1028C000200300FA03FC20FA02F001FA03FE40EABA
:1028D0000E0021FA02F11444C1E600BF70B54FF0BA
:1028E000FF0C4CF4E06C1CEA11541DBF1CEA13559C
:1028F00094EA0C0F95EA0C0F00F0DEF82C4481EA04
:10290000030621EA4C5123EA4C5350EA013518BF23
:1029100052EA033541F4801143F4801338D0A0FB10
:1029200002CE4FF00005E1FB02E506F00042E0FBBD
:1029300003E54FF00006E1FB03569CF0000F18BFC3
:102940004EF0010EA4F1FF04B6F5007F64F540746B
:1029500004D25FEA4E0E6D4146EB060642EAC621FE
:1029600041EA55514FEAC52040EA5E504FEACE2E6B
:10297000B4F1FD0C88BFBCF5E06F1ED8BEF1004F6E
:1029800008BF5FEA500E50F1000041EB045170BDEA
:1029900006F0004646EA010140EA020081EA03012E
:1029A000B4EB5C04C2BFD4EB0C0541EA045170BD2A
:1029B00041F480114FF0000E013C00F3AB8014F1A4
:1029C000360FDEBF002001F0004170BDC4F10004ED
:1029D000203C35DA0C341BDC04F11404C4F120056E
:1029E00000FA05F320FA04F001FA05F240EA0200C9
:1029F00001F0004221F0004110EBD37021FA04F6FF
:102A000042EB06015EEA430E08BF20EAD37070BDB8
:102A1000C4F10C04C4F1200500FA04F320FA05F017
:102A200001FA04F240EA020001F0004110EBD37019
:102A300041F100015EEA430E08BF20EAD37070BD89
:102A4000C4F1200500FA05F24EEA020E20FA04F362
:102A500001FA05F243EA020321FA04F001F0004111
:102A600021FA04F220EA020000EBD3705EEA430E82
:102A700008BF20EAD37070BD94F0000F0FD101F0B1
:102A80000046400041EB010111F4801F08BF013CEA
:102A9000F7D041EA060195F0000F18BF704703F028
:102AA0000046520043EB030313F4801F08BF013DAF
:102AB000F7D043EA0603704794EA0C0F0CEA13556B
:102AC00018BF95EA0C0F0CD050EA410618BF52EA25
:102AD0004306D1D181EA030101F000414FF000002B
:102AE00070BD50EA410606BF1046194652EA430639
:102AF00019D094EA0C0F02D150EA013613D195EAAD
:102B00000C0F05D152EA03361CBF104619460AD1F4
:102B100081EA030101F0004141F0FE4141F47001FE
:102B20004FF0000070BD41F0FE4141F4780170BDEE
:102B300070B54FF0FF0C4CF4E06C1CEA11541DBF53
:102B40001CEA135594EA0C0F95EA0C0F00F0A7F855
:102B5000A4EB050481EA030E52EA03354FEA013182
:102B600000F088804FEA03334FF0805545EA131395
:102B700043EA12634FEA022245EA111545EA10655D
:102B80004FEA00260EF000419D4208BF964244F1F4
:102B9000FD0404F5407402D25B084FEA3202B61A13
:102BA00065EB03055B084FEA32024FF480104FF4E7
:102BB000002CB6EB020E75EB030E22BFB61A75465B
:102BC00040EA0C005B084FEA3202B6EB020E75EBEE
:102BD000030E22BFB61A754640EA5C005B084FEA56
:102BE0003202B6EB020E75EB030E22BFB61A754623
:102BF00040EA9C005B084FEA3202B6EB020E75EB2E
:102C0000030E22BFB61A754640EADC0055EA060EEE
:102C100018D04FEA051545EA16754FEA06164FEA31
:102C2000C30343EA52734FEAC2025FEA1C1CC0D1DD
:102C300011F4801F0BD141EA00014FF000004FF06A
:102C4000004CB6E711F4801F04BF01430020B4F12B
:102C5000FD0C88BFBCF5E06F3FF6AFAEB5EB030CE3
:102C600004BFB6EB020C5FEA500C50F1000041EBE0
:102C7000045170BD0EF0004E4EEA113114EB5C04AD
:102C8000C2BFD4EB0C0541EA045170BD41F4801180
:102C90004FF0000E013C90E645EA060E8DE60CEA88
:102CA000135594EA0C0F08BF95EA0C0F3FF43BAFA5
:102CB00094EA0C0F0AD150EA01347FF434AF95EA5C
:102CC0000C0F7FF425AF104619462CE795EA0C0F40
:102CD00006D152EA03353FF4FDAE1046194622E70D
:102CE00050EA410618BF52EA43067FF4C5AE50EAE7
:102CF00041047FF40DAF52EA43057FF4EBAE12E7D7
:102D00004FF0FF3C06E000BF4FF0010C02E000BFB7
:102D10004FF0010C4DF804CD4FEA410C7FEA6C5C9A
:102D20004FEA430C18BF7FEA6C5C1BD001B050EA3D
:102D3000410C0CBF52EA430C91EA030F02BF90EA28
:102D4000020F0020704710F1000F91EA030F58BFE7
:102D5000994208BF90422CBFD8176FEAE37040F049
:102D6000010070474FEA410C7FEA6C5C02D150EAE7
:102D7000013C07D14FEA430C7FEA6C5CD6D152EAA2
:102D8000033CD3D05DF8040B704700BF8446104667
:102D900062468C461946634600E000BF01B5FFF766
:102DA000B7FF002848BF10F1000F01BD4DF808ED36
:102DB000FFF7F4FF0CBF012000205DF808FB00BF07
:102DC0004DF808EDFFF7EAFF34BF012000205DF861
:102DD00008FB00BF4DF808EDFFF7E0FF94BF0120AE
:102DE00000205DF808FB00BF4DF808EDFFF7CEFFAF
:102DF00094BF012000205DF808FB00BF4DF808EDEE
:102E0000FFF7C4FF34BF012000205DF808FB00BFBE
:102E10004FEA4102B2F1E04324BFB3F5001CDCF1FC
:102E2000FE5C0DD901F0004C4FEAC0024CEA507034
:102E3000B2F1004F40EB830008BF20F00100704763
:102E400011F0804F21D113F13872BCBF01F0004066
:102E5000704741F480114FEA5252C2F11802C2F198
:102E6000200C10FA0CF320FA02F018BF40F0010019
:102E70004FEAC1234FEAD32303FA0CFC40EA0C00CB
:102E800023FA02F34FEA4303CCE77FEA625307D108
:102E900050EA01331EBF4FF0FE4040F4400070473F
:102EA00001F0004040F0FE4040F40000704700BFD9
:102EB00053B94AB9002908BF00281CBF4FF0FF31A1
:102EC0004FF0FF3000F07AB9ADF1080C6DE904CE97
:102ED00000F006F8DDF804E0DDE9022304B07047F5
:102EE0002DE9F0478C460D460446089E002B51D133
:102EF0008A4217466DD9B2FA82FEBEF1000F0BD09E
:102F0000CEF1200C01FA0EF520FA0CFC02FA0EF7B5
:102F10004CEA050C00FA0EF44FEA174A250CBCFBEC
:102F2000FAF81FFA87F90AFB18CC45EA0C4508FBAA
:102F300009F3AB420AD9ED1908F1FF3280F0238181
:102F4000AB4240F22081A8F102083D44ED1AA4B240
:102F5000B5FBFAF00AFB105544EA054400FB09F9F9
:102F6000A14509D9E41900F1FF3380F00A81A14598
:102F700040F2078102383C44A4EB090440EA0840CF
:102F80000021002E61D024FA0EF400233460736017
:102F9000BDE8F0878B4207D9002E54D0002186E887
:102FA00021000846BDE8F087B3FA83F1002940F01C
:102FB0008E80AB4202D3824200F2FA80841A65EB23
:102FC00003050120AC46002E3FD086E81010BDE876
:102FD000F08712B90127B7FBF2F7B7FA87FEBEF107
:102FE000000F34D1EB1B3A0C1FFA87FC0121B3FB15
:102FF000F2F8250C02FB183345EA03450CFB08F3F5
:10300000AB4207D9ED1908F1FF3002D2AB4200F212
:10301000D1808046ED1AA3B2B5FBF2F002FB105549
:1030200043EA05440CFB00FCA44507D9E41900F170
:10303000FF3302D2A44500F2B8801846A4EB0C047A
:1030400040EA08409DE731463046BDE8F087CEF1C2
:10305000200405FA0EF307FA0EF720FA04F83A0CEA
:1030600025FA04F448EA0308B4FBF2F14FEA1845E4
:1030700002FB11441FFA87FC45EA044501FB0CF3EF
:10308000AB4200FA0EF409D9ED1901F1FF3080F0DE
:103090008A80AB4240F2878002393D44EB1A1FFA26
:1030A00088F5B3FBF2F002FB103345EA034500FB61
:1030B0000CF3AB4207D9ED1900F1FF386FD2AB42E8
:1030C0006DD902383D44EB1A40EA01418FE7C1F166
:1030D000200722FA07F88B4005FA01F448EA0303B7
:1030E00020FA07FE4FEA134CFD404EEA040EB5FBF2
:1030F000FCF94FEA1E440CFB19551FFA83F844EA09
:10310000054509FB08F4AC4202FA01F200FA01FAA3
:1031100008D9ED1809F1FF3043D2AC4241D9A9F1E9
:1031200002091D442D1B1FFA8EFEB5FBFCF00CFBA3
:1031300010554EEA054400FB08F8A04507D9E418ED
:1031400000F1FF3529D2A04527D902381C4440EAB6
:103150000940A4EB0804A0FB02894C45C6464D4635
:1031600015D312D056B1BAEB0E0364EB050404FA82
:1031700007F7CB401F43CC40376074600021BDE8A7
:10318000F0871846F8E69046E0E6C245EAD2B8EB8A
:10319000020E69EB03050138E4E72846D7E740460D
:1031A00091E78146BEE7014678E702383C4445E7AF
:1031B000084608E7A8F102083D442BE7704700BF26
:1031C000034613F8012B002AFBD1181A0138704767
:1031D00001F0FF01102A2BDB10F0070F08D010F8C8
:1031E000013B013A8B422DD010F0070F42B3F6D1CC
:1031F000F0B441EA012141EA014122F007047FF0E5
:1032000000070023F0E80256083C85EA010586EA3B
:10321000010685FA47F5A3FA87F586FA47F6A5FA77
:1032200087F68EB9EED1F0BC01F0FF0102F0070283
:1032300032B110F8013B013A83EA010313B1F8D12E
:103240000020704701387047002D06BF354603380F
:10325000073815F0010F07D1013015F4807F02BF48
:10326000013015F4C03F0130F0BC0138704700BF99
:103270004FEA410C7FEA6C5C02D150EA013C0AD172
:103280004FEA430C7FEA6C5C02D152EA033C02D164
:103290004FF0000070474FF0010070474FEA4102C5
:1032A00012F5001215D211D56FF47873B3EB625298
:1032B00012D94FEAC12343F0004343EA505311F0BF
:1032C000004F23FA02F018BF404270474FF0000051
:1032D000704750EA013005D111F0004008BF6FF08F
:1032E000004070474FF00000704700BF10B49408D2
:1032F000DFED1E7A22E090ED007AD1ED006A27EE34
:10330000267A77EE877A90ED017AD1ED016A27EE81
:10331000267A77EE877A90ED027AD1ED026A27EE6F
:10332000267A77EE877A90ED037AD1ED036A27EE5D
:10333000267A77EE877A013C10311030002CDAD1F2
:1033400002F003020AE090ED007AD1ED006A27EE68
:10335000267A77EE877A013A04310430002AF2D1D6
:10336000C3ED007A5DF8044B704700BF0000000019
:1033700010B504460E4B18784FF47A73B3FBF0F394
:103380000C4A1068B0FBF3F000F07CF868B90F2C21
:1033900001D9012010BD002221464FF0FF3000F07E
:1033A00041F8034B5C60002010BD012010BD00BF40
:1033B000000000201C03002008B5074A136843F4EE
:1033C00000731360032000F01BF80020FFF7D0FF0C
:1033D00001F0B4FF002008BD003C0240034A116820
:1033E000034B1B780B441360704700BF0806002096
:1033F00000000020014B1868704700BF080600203D
:103400000649CB6823F4E0631B041B0C000200F4A4
:10341000E0600343024A1A43CA60704700ED00E0CF
:103420000000FA0530B4144BDB68C3F30223C3F188
:103430000704042C28BF04241D1D062D13D9033BAB
:10344000012505FA04F4013C2140994005FA03F3F3
:10345000013B13401943002807DB0901C9B2074BA0
:10346000195430BC70470023EAE700F00F0009014F
:10347000C9B2034B1954F4E700ED00E000E400E0AA
:1034800014ED00E00138B0F1807F0AD2064B58609D
:10349000F021064A82F823100020986007221A6063
:1034A00070470120704700BF10E000E000ED00E031
:1034B000002838D010B50446437F1BB3022363773E
:1034C00023791BBB2368194A5A612268936823F049
:1034D00018039360637913BB23684FF0FF321A61BE
:1034E0002268936823F0600361690B43936022684C
:1034F000936823F08003A1690B43936001236377F2
:10350000002010BD037701F03FFDD7E7E268A16816
:10351000204600F00DF80028DCD0012010BD236803
:1035200022691A61DCE70120704700BFB71DC104A2
:1035300030B41F24651E3CB105F01F0321FA03F3CC
:103540002C4613F0010FF5D0182A27D8DFE802F037
:103550000D26262626262626222626262626262628
:103560001E262626262626261A0000233BB9046896
:1035700061610068816821F018010A438260184681
:1035800030BC7047062D0BD80023EFE7072D09D874
:103590000023EBE70F2D07D80023E7E70123E5E73A
:1035A0000123E3E70123E1E70123DFE7F0B583B07F
:1035B000002437E0092600E0002606FA0EF6324322
:1035C00002336C4E46F823206B4B1A68EB4302EA39
:1035D00003064F6817F4803F01D045EA0206664AA9
:1035E0001660526803EA02064F6817F4003F01D0E4
:1035F00045EA0206604A5660926803EA02064F688E
:1036000017F4801F01D045EA02065B4A9660D26833
:1036100013404E6816F4001F01D045EA0203564AD3
:10362000D36001340F2C00F2A3800123A3400A6869
:1036300003EA0205AB42F4D14A68122A18BF022AF3
:1036400012D14FEAD40E0EF1080E50F82E2004F0DD
:103650000706B6000F27B74022EA07020F6907FAEC
:1036600006F6324340F82E2006684FEA440E032245
:1036700002FA0EF2D24316404F6807F0030707FA2A
:103680000EF73E4306604E68771E112E18BF012FBD
:1036900001D9122E0FD186681640CF6807FA0EF7AF
:1036A0003E438660466826EA03034E68C6F300166A
:1036B000A64033434360C3681A408B6803FA0EF395
:1036C0001A43C2604B6813F0805FAAD02B4B5A6C30
:1036D00042F480425A645B6C03F480430193019B83
:1036E000A3089E1C234A52F8262004F003064FEA42
:1036F000860E0F2606FA0EF622EA0602204FB84280
:103700003FF45AAF1F4EB04222D006F58066B04259
:1037100020D006F58066B0421ED006F58066B04225
:103720001CD006F58066B0421AD006F58066B0421D
:1037300018D006F58066B04216D006F58066B04215
:1037400014D006F58066B0423FF434AF0A2634E761
:10375000012632E7022630E703262EE704262CE76F
:1037600005262AE7062628E7072626E7082624E76F
:1037700003B0F0BD00380140003C01400038024079
:10378000000002400004024010B582B01B4B1A6CCE
:1037900042F080521A641B6C03F080530193019B2A
:1037A000174A136843F480331360FFF723FE04467F
:1037B000134B5B6813F4803F08D1FFF71BFE001B1F
:1037C000B0F57A7FF4D9032002B010BD0C4A13681B
:1037D00043F400331360FFF70DFE0446084B5B68AB
:1037E00013F4003F07D1FFF705FE001BB0F57A7F09
:1037F000F4D90320E8E70020E6E700BF00380240E4
:1038000000700040002800F0DB8170B582B00446F3
:10381000036813F0010F3AD0A24B9B6803F00C032E
:10382000042B2BD09F4B9B6803F00C03082B20D05C
:103830006368B3F5803F50D0002B54D1994B1A6880
:1038400022F480321A601A6822F480221A606368B7
:10385000002B5FD0FFF7CEFD0546924B1B6813F49B
:10386000003F14D1FFF7C6FD401B6428F5D90320A3
:10387000ABE18C4B5B6813F4800FD9D0894B1B688C
:1038800013F4003F03D06368002B00F09B81236892
:1038900013F0020F64D0834B9B6813F00C0F4DD0D4
:1038A000804B9B6803F00C03082B42D0E368002B8D
:1038B00079D07C4A136843F001031360FFF79AFD47
:1038C0000546784B1B6813F0020F63D1FFF792FD9A
:1038D000401B0228F5D9032077E1724A136843F4AC
:1038E00080331360B3E7B3F5A02F09D06D4B1A688E
:1038F00022F480321A601A6822F480221A60A6E745
:10390000684B1A6842F480221A601A6842F48032C6
:103910001A609CE7FFF76EFD0546624B1B6813F4C7
:10392000003FB4D0FFF766FD401B6428F5D90320A3
:103930004BE15C4B5B6813F4800FB7D1594B1B68AC
:1039400013F0020F04D0E368012B01D001203CE109
:10395000544A136823F0F803216943EAC103136052
:10396000236813F0080F46D0636983B34D4A536F41
:1039700043F001035367FFF73DFD0546494B5B6F7D
:1039800013F0020F37D1FFF735FD401B0228F5D9A0
:1039900003201AE1434A136823F0F803216943EA3C
:1039A000C1031360DCE73F4A136823F0010313608F
:1039B000FFF720FD05463B4B1B6813F0020FCFD0ED
:1039C000FFF718FD401B0228F5D90320FDE0354A1A
:1039D000536F23F001035367FFF70CFD0546314B8E
:1039E0005B6F13F0020F06D0FFF704FD401B0228A7
:1039F000F5D90320E9E0236813F0040F7ED0294BAA
:103A00001B6C13F0805F31D1264B1A6C42F0805250
:103A10001A641B6C03F080530193019B0125224B18
:103A20001B6813F4807F23D0A368012B34D0002BB4
:103A30003CD11C4B1A6F22F001021A671A6F22F058
:103A400004021A67A368002B46D0FFF7D3FC064692
:103A5000144B1B6F13F0020F4FD1FFF7CBFC801BF1
:103A600041F288339842F3D90320AEE00025D6E72F
:103A70000D4A136843F480731360FFF7BBFC0646DE
:103A8000094B1B6813F4807FCED1FFF7B3FC801B7A
:103A90006428F5D9032098E0024A136F43F001032C
:103AA0001367CFE70038024000700040052B09D0B3
:103AB000484B1A6F22F001021A671A6F22F00402B3
:103AC0001A67BFE7434B1A6F42F004021A671A6F76
:103AD00042F001021A67B5E7FFF78CFC06463D4B42
:103AE0001B6F13F0020F08D0FFF784FC801B41F21C
:103AF00088339842F3D9032067E0F5B9A369002B16
:103B000062D0344A926802F00C02082A5FD0022B7D
:103B100019D0304A136823F080731360FFF76AFCF2
:103B200004462C4B1B6813F0007F47D0FFF762FC64
:103B3000001B0228F5D9032047E0264A136C23F026
:103B400080531364DAE7234A136823F08073136009
:103B5000FFF750FC05461F4B1B6813F0007F06D093
:103B6000FFF748FC401B0228F5D903202DE0E3694C
:103B7000226A1343626A43EA8213A26A5208013A34
:103B800043EA0243E26A43EA026343F00053114A04
:103B90005360136843F080731360FFF72BFC0446F7
:103BA0000C4B1B6813F0007F06D1FFF723FC001BB2
:103BB0000228F5D9032008E0002006E0002004E0F8
:103BC00001207047012000E0002002B070BD0120FC
:103BD000FBE700BF00380240F8B5254B9B6803F0B7
:103BE0000C03042B41D0082B01D02248F8BD204BF8
:103BF0005A6802F03F025B6813F4800F12D01C4B2E
:103C00005968C1F3881100231B48A1FB0001FFF78D
:103C10004FF9174B5B68C3F3014301335B00B0FB03
:103C2000F3F0F8BD124B5B68C3F388131E46002700
:103C30005C010025E41A65EB0705A90141EA9461DE
:103C4000A001001B61EB0501CB0043EA5073C400E7
:103C5000A01943EB07018B0243EA905384022046EC
:103C600019460023FFF724F9D3E70348F8BD00BF46
:103C7000003802400024F40040787D01002800F064
:103C8000A28070B50446524B1B6803F00F038B42B1
:103C90000CD24F4A136823F00F030B4313601368D1
:103CA00003F00F03994201D0012070BD236813F087
:103CB000020F17D013F0040F04D0464A936843F460
:103CC000E0539360236813F0080F04D0414A9368CF
:103CD00043F4604393603F4A936823F0F003A06885
:103CE000034393600D46236813F0010F31D06368DE
:103CF000012B20D0022B25D0364A126812F0020F79
:103D000063D034498A6822F0030213438B60FFF7C3
:103D100071FB06462F4B9B6803F00C036268B3EB04
:103D2000820F16D0FFF766FB801B41F28833984262
:103D3000F0D9032070BD274A126812F4003FE0D189
:103D4000012070BD234A126812F0007FD9D10120F2
:103D500070BD1F4B1B6803F00F039D420CD21C4A21
:103D6000136823F00F032B431360136803F00F0352
:103D70009D4201D0012070BD236813F0040F06D0CE
:103D8000144A936823F4E053E1680B43936023687B
:103D900013F0080F07D00F4A936823F4604321699A
:103DA00043EAC1039360FFF717FF0A4B9B68C3F315
:103DB0000313094AD35CD840084B18600020FFF772
:103DC000D7FA002070BD01207047012070BD00BFF0
:103DD000003C0240003802406C9000081C030020A8
:103DE000014B1868704700BF1C03002008B5FFF79F
:103DF000F7FF044B9B68C3F38223034AD35CD8408C
:103E000008BD00BF003802407C90000808B5FFF7ED
:103E1000E7FF044B9B68C3F34233034AD35CD840AB
:103E200008BD00BF003802407C900008F0B583B0A8
:103E30000446036813F0010F0CD0AF4B9A6822F4CC
:103E400000029A609A68416B0A439A60436BC3B15F
:103E5000002700E00027236813F4002F15D0A64A9E
:103E6000D2F88C3023F44013E16B0B43C2F88C3052
:103E7000E36BB3F5801F06D0002B00F01B810025FB
:103E800004E00127E7E70127F6E70025236813F49C
:103E9000801F0FD0984AD2F88C3023F44003216C55
:103EA0000B43C2F88C30236CB3F5800F00F0048113
:103EB00003B90125236813F0807F00D0012713F098
:103EC000200F40F0FB80236813F0100F0CD08A4BBA
:103ED000D3F88C2022F08072C3F88C20D3F88C2089
:103EE000A16B0A43C3F88C20236813F4804F08D0D9
:103EF000814AD2F8903023F44033616E0B43C2F80C
:103F00009030236813F4004F08D07B4AD2F89030E9
:103F100023F44023A16E0B43C2F89030236813F4BE
:103F2000803F08D0744AD2F8903023F44013E16EF9
:103F30000B43C2F89030236813F4003F08D06E4A58
:103F4000D2F8903023F44003216F0B43C2F8903035
:103F5000236813F0400F08D0674AD2F8903023F05E
:103F60000303616C0B43C2F89030236813F0800F99
:103F700008D0614AD2F8903023F00C03A16C0B43B7
:103F8000C2F89030236813F4807F08D05A4AD2F8E0
:103F9000903023F03003E16C0B43C2F8903023687B
:103FA00013F4007F08D0544AD2F8903023F0C003B5
:103FB000216D0B43C2F89030236813F4806F08D052
:103FC0004D4AD2F8903023F44073616D0B43C2F830
:103FD0009030236813F4006F08D0474AD2F890302D
:103FE00023F44063A16D0B43C2F89030236813F4AF
:103FF000805F08D0404AD2F8903023F44053E16DFE
:104000000B43C2F89030236813F4005F08D03A4A9B
:10401000D2F8903023F44043216E0B43C2F8903025
:10402000236813F4800F08D0334AD2F8903023F07D
:104030008063A16F0B43C2F89030236813F4001F14
:104040000DD02D4AD2F8903023F00063E16F0B437E
:10405000C2F89030E36FB3F1006F00F099802368ED
:1040600013F0080F00D0012513F4802F08D0224A46
:10407000D2F8903023F04073616F0B43C2F8903058
:10408000236813F4000F09D01B4AD2F8903023F0B4
:104090008053D4F880100B43C2F89030002F79D1B0
:1040A0002368B3F1007F75D0002D40F00781002018
:1040B00003B0F0BD0125E9E60127F9E60E4B1A6CC5
:1040C00042F080521A641B6C03F080530193019BF1
:1040D0000A4A136843F480731360FFF78BF90646AE
:1040E000064B1B6813F4807F0AD1FFF783F9801B0E
:1040F0006428F5D90320DBE7003802400070004057
:10410000B34B1B6F13F4407315D0226B02F4407253
:10411000934210D0AE4B1A6F22F44072196F41F4E3
:1041200080311967196F21F4803119671A671B6F85
:1041300013F0010F12D1236B03F44072B2F5407FEC
:104140001DD0A34A936823F4F8139360A0490B6F22
:10415000226BC2F30B0213430B67B4E6FFF74AF975
:1041600006469B4B1B6F13F0020FE4D1FFF742F999
:10417000801B41F288339842F3D9032098E7944892
:10418000826822F4F812934919400A438260DDE7FD
:10419000012564E78E4A136823F080631360FFF7FC
:1041A00029F906468A4B1B6813F0006F06D0FFF70B
:1041B00021F9801B6428F5D9032079E7236813F0DF
:1041C000010F13D0636B8BB9814AD2F88430D2F8D7
:1041D0008410606803F4403343EA801301F0706197
:1041E0000B43A16843EA0173C2F88430236813F4D7
:1041F000002F03D0E26BB2F5801F43D013F4801F71
:1042000003D0236CB3F5800F3CD0236813F0807F7C
:1042100011D06F4AD2F88400D2F8841066682369FE
:104220001B0443EA861300F07060034301F0E04191
:104230000B43C2F88430236813F0007F0DD062680E
:1042400023691B0443EA8213E26843EA0263A2681B
:1042500043EA02735E4AC2F884305D4A136843F051
:1042600080631360FFF7C6F80646594B1B6813F0CE
:10427000006F7FF419AFFFF7BDF8801B6428F4D9F5
:10428000032015E7524AD2F88430D2F884106068CF
:1042900003F4403343EA8013E06843EA006301F02B
:1042A000E0410B43C2F88430D2F88C3023F01F0376
:1042B000616A01390B43C2F88C30A6E7444A13689F
:1042C00023F080531360FFF795F80546404B1B68B9
:1042D00013F0005F06D0FFF78DF8401B6428F5D976
:1042E0000320E5E6236813F4002F01D0E26B22B12E
:1042F00013F4801F1DD0236CDBB9354AD2F8883007
:10430000D2F88810606903F4403343EA8013A0694F
:1043100043EA006301F0E0410B43C2F88830D2F871
:104320008C3023F4F853A16A013943EA0123C2F81F
:104330008C30236813F4001F03D0E36FB3F1006FD8
:1043400031D0236813F0080F19D0214AD2F8881011
:10435000D2F88830606903F4403343EA801301F0F7
:1043600070610B43E16943EA0173C2F88830D2F807
:104370008C3023F44033E16A0B43C2F88C30144A8A
:10438000136843F080531360FFF734F80446104B72
:104390001B6813F0005F19D1FFF72CF8001B64288D
:1043A000F5D9032084E60A4AD2F88800D2F88810AA
:1043B0006569236A1B0443EA851300F070600343B8
:1043C00001F0E0410B43C2F88830BAE700206FE605
:1043D00000380240FFFCFF0F10B5044683680269F5
:1043E000134342691343C2691343016808689C4A36
:1043F000024013430B602268536823F44053E16882
:104400000B435360A369226A134321688A6822F42C
:10441000306213438B602368924A93422BD0924AB6
:1044200093423BD0914A934250D0914A934263D0F9
:10443000904A934275D0904A934200F08A808F4A06
:10444000934200F09E808E4A934200F0B280102387
:10445000E269B2F5004F00F0D480082B00F26F81C2
:10446000DFE813F03201470151016D015A016D017E
:104470006D016D016401834BD3F8903003F00303A9
:10448000032B09D8DFE803F00204AD060123DFE7C0
:104490000423DDE70823DBE71023D9E7794BD3F8C2
:1044A000903003F00C030C2B0ED8DFE803F0070D5F
:1044B0000D0D090D0D0D9C0D0D0D0B000023C7E713
:1044C0000423C5E70823C3E71023C1E76D4BD3F8E6
:1044D000903003F03003102B0AD006D9202B00F0C7
:1044E0008480302B06D10823B2E71BB90023AFE745
:1044F0000423ADE71023ABE7624BD3F8903003F011
:10450000C003402B09D005D9802B70D0C02B06D119
:1045100008239DE71BB900239AE7042398E710239B
:1045200096E7584BD3F8903003F44073B3F5807F8F
:104530000BD007D9B3F5007F5BD0B3F5407F06D130
:10454000082385E71BB9002382E7042380E71023B3
:104550007EE74C4BD3F8903003F44063B3F5806FA3
:104560000BD007D9B3F5006F45D0B3F5406F06D136
:1045700008236DE71BB901236AE7042368E71023CA
:1045800066E7404BD3F8903003F44053B3F5805FB7
:104590000BD007D9B3F5005F2FD0B3F5405F06D13C
:1045A000082355E71BB9002352E7042350E71023E3
:1045B0004EE7344BD3F8903003F44043B3F5804FCB
:1045C0000BD007D9B3F5004F19D0B3F5404F06D142
:1045D00008233DE71BB900233AE7042338E71023FB
:1045E00036E7022334E7022332E7022330E70223CF
:1045F0002EE702232CE702232AE7022328E70223DF
:1046000026E7082B5DD8DFE803F0051F3F5C485C18
:104610005C5C5300FFF7EAFB6268530803EB40035E
:10462000B3FBF2F39BB20020A3F110014FF6EF723F
:10463000914200F287809AB222F00F02C3F3420344
:1046400013432268D36050E0FFF7E0FB6268530831
:1046500003EB4003B3FBF2F39BB20020E4E700BF9F
:10466000F369FFEF001001400044004000480040A3
:10467000004C004000500040001401400078004011
:10468000007C0040003802406268304B03EB52036C
:10469000B3FBF2F39BB20020C6E7FFF79DFA626816
:1046A000530803EB4003B3FBF2F39BB20020BBE7DC
:1046B0006268530803F58033B3FBF2F39BB200202A
:1046C000B2E701200023AFE7FFF790FB626800EB41
:1046D0005203B3FBF2F39BB20020A3F110014FF69B
:1046E000EF72914230D82268D3600023236663665C
:1046F00010BDFFF78BFB626800EB5203B3FBF2F3D4
:104700009BB20020E9E76268114B03EB5203B3FB55
:10471000F2F39BB20020E0E7FFF75EFA626800EB7D
:104720005203B3FBF2F39BB20020D6E76268530852
:1047300003F50043B3FBF2F39BB20020CDE7012069
:104740000023CAE70120D0E70120CEE70048E801B6
:104750000024F400436A13F0010F06D00268536886
:1047600023F40033816A0B435360436A13F0020F52
:1047700006D00268536823F48033C16A0B43536048
:10478000436A13F0040F06D00268536823F48023B1
:10479000016B0B435360436A13F0080F06D00268A5
:1047A000536823F40043416B0B435360436A13F097
:1047B000100F06D00268936823F48053816B0B437B
:1047C0009360436A13F0200F06D00268936823F4C5
:1047D0000053C16B0B439360436A13F0400F0AD040
:1047E0000268536823F48013016C0B435360036C1D
:1047F000B3F5801F0BD0436A13F0800F06D0026818
:10480000536823F40023816C0B43536070470268A4
:10481000536823F4C003416C0B435360EBE72DE96D
:10482000F04105460F4616469846069C2B68DB6904
:1048300037EA03030CBF01230023B3421DD1B4F1B7
:10484000FF3FF3D0FEF7D6FDA0EB0800844201D372
:10485000002CEBD12A68136823F4D07313602A6804
:10486000936823F00103936020236B67AB670023F9
:1048700085F870300320BDE8F0810020BDE8F081AC
:104880002DE9F04182B01E46436F202B04D0022355
:10489000184602B0BDE8F08104460D469046002A55
:1048A00018BF002953D090F87030012B01D102239A
:1048B000EEE7012380F870300023C36721234367AC
:1048C000FEF798FD0746A4F85080A4F85280A3682C
:1048D000B3F5805F02D04FF0000814E0236913B1F4
:1048E0004FF000080FE0A84600250CE0226838F8D9
:1048F000023BC3F308039362B4F852309BB2013B0E
:104900009BB2A4F85230B4F852309BB273B1009607
:104910003B46002280212046FFF781FFC8B9002DC9
:10492000E4D0236815F8012B9A62E5E700963B4630
:10493000002240212046FFF772FF034608B10323FF
:10494000A6E720226267002284F87020A0E70123F6
:104950009EE703239CE710B582B004460023C3679B
:10496000FEF748FD2268126812F0080F07D12023D5
:104970006367A367002084F8700002B010BD6FF079
:104980007E430093034600224FF400112046FFF7B8
:1049900046FF0028EBD00320EFE768B310B50446CC
:1049A000436F03B3242363672268136823F0010372
:1049B00013602046FFF710FD01281FD0636ABBB9C2
:1049C0002268536823F4904353602268936823F06D
:1049D0002A0393602268136843F0010313602046A2
:1049E000FFF7B9FF10BD80F8703000F049FDD9E73E
:1049F0002046FFF7AFFEE3E70120704710BD00003F
:104A000000487047708F0008F0B5A1B00F46FBF763
:104A1000CCFD002F18BF002802D1002021B0F0BD2E
:104A20000646344B0193344B0293344B0393344B7F
:104A30000493FBF780FC0590FBF7CAFC0690314B12
:104A4000079303238DF820308DF8213000258DF851
:104A500022508DF8235001248DF824408DF82540F4
:104A60008DF826508DF82750FBF701FD0A90FBF7D3
:104A70004DFD0B9072230C93ADF83440ADF83640E9
:104A8000ADF83840ADF83A40ADF83C40ADF83E40A6
:104A9000022310931195ADF84840ADF84A40ADF8A7
:104AA0004C40ADF84E401494159516AC06F1240315
:104AB0000FCB84E80F001AAC06F114030FCB84E887
:104AC0000F001E9573681F93F36B00E013463BB114
:104AD0001E9A01321E929A689342F7D10022F5E79E
:104AE0007C2201A9384601F070FE1E98003018BFE4
:104AF000012093E78490000888900008AC9000089B
:104B0000C8900008E090000808B5FBF7ACFD08BDB0
:104B100000B583B00023019301230093024AFBF701
:104B200005FE03B05DF804FB0800002008B5FBF7A4
:104B300033FE08BD38B50D46FBF785FE002840D092
:104B4000EA68214B996C41F0004199641A655A65F5
:104B5000996D41F00041996502F14001196659666D
:104B6000996E41F00041996602F160011967596739
:104B7000996F41F0004199678032C3F88020C3F8F3
:104B80008420EA69033222F00302816841F4007153
:104B900081600021C3F89010C3F89410C3F8A020DE
:104BA000C3F8A420C3F8B020C3F8B4202032C3F85F
:104BB000C020C3F8C420C3F8D020C3F8D4200120FB
:104BC00038BD002038BD00BF0800002008B5FBF745
:104BD000B2FE08BD08B50022FBF7ADFE08BD08B562
:104BE00000F032FC08BD70472DE9F04106460D4645
:104BF0000024002C02DD0020BDE8F08104EBC4039A
:104C0000DA00CEB1154B9F583846FEF7D9FA8046E8
:104C10003046FEF7D5FA804506D0002383B96B1ED7
:104C2000ADB101341D46E4E742463146384602F054
:104C3000C7FA18B10023F1E70023EFE70123EDE7FE
:104C400004EBC404E300054AD058BDE8F08104EB4E
:104C5000C404E300014AD058BDE8F0810490000884
:104C60002DE9F84F0023002B20DD4FF00008B8F1AC
:104C7000000F28D017460E4605460024002C2BDDD9
:104C80004FF00009B9F1000F49D0002F50D0D9F8EA
:104C9000303039463046984730B9C8F8009033680C
:104CA000C8F80430C6F80080BDE8F88F03EB830431
:104CB000234D55F834400CB10133D4E703EB8303A3
:104CC00005EBC308D3E70020312363F3070010236B
:104CD00063F31F20BDE8F88F1A4A04EBC403DB001E
:104CE00002EB0309BDB152F803A05046FEF768FA83
:104CF00083462846FEF764FA834504D00023002B40
:104D0000C0D10134BAE75A462946504602F058FA53
:104D100018B10023F3E70023F1E70123EFE70020B8
:104D2000142363F30700102363F31F20BDE8F88FFB
:104D3000D9F83030D9F8241030469847ACE700BF96
:104D4000280500200490000838B50023002B0EDD54
:104D500000255DB104462B689B6B686898476B68BB
:104D600083421ED00023002B1DDD002038BD30B152
:104D700003EB8302D100124A0A4490420FD008B1DB
:104D80000133E3E703EB8301CA000D498A58002A87
:104D9000F6D103EB8303DA000D461544D9E7054647
:104DA000D7E7204638BD03EB8302D100044A0A440A
:104DB000954201D00133D6E70020014B585038BD51
:104DC0002805002010B50023002B06DD0020E0B1EF
:104DD0000368DB6A4068984710BD30B103EB83027B
:104DE000D4000B4A22449042F1D008B10133EBE7E2
:104DF00003EB8304E200064CA258002AF6D103EB31
:104E00008303DA0020461044E1E7002010BD00BF14
:104E10002805002010B50021142363F30701102397
:104E200063F31F210023002B06DD0020D8B10268A8
:104E3000526B4068904710BD30B103EB83020B4CBE
:104E400004EBC2029042F1D008B10133EBE703EB6F
:104E50008302064C54F83220002AF6D103EB830279
:104E600004EBC200E2E7084610BD00BF28050020A1
:104E7000F0B589B00F460023002B20DD0026002E60
:104E80003FD034686D4604340FCC0FC594E80F0052
:104E900085E80F007B8A63B307F110030FCB08ACE2
:104EA00004E90F007B883BB397E80F008DE80F0003
:104EB0003368DB6B69467068984709B0F0BD30B164
:104EC00003EB8302D100104A0A4490420FD008B18C
:104ED0000133D1E703EB8301CA000B498A58002A4A
:104EE000F6D103EB8303DA000E461644C7E7064605
:104EF000C5E7FB690793D5E733689B6A984703903A
:104F0000D6E70020D9E700BF2805002038B50023E8
:104F1000002B06DD0020E0B103681B6C4068984759
:104F200038BD30B103EB8304E5000B4C2C44A042A8
:104F3000F1D008B10133EBE703EB8305EC00064D3C
:104F40002C59002CF6D103EB8303DC0028462044C7
:104F5000E1E7002038BD00BF2805002008B508485B
:104F6000084B036000230371437143618361012394
:104F70000362FEF79DFA00B908BD00F0DDF9FBE71A
:104F80000C060020003002400268094B9A4200D013
:104F9000704782B003F500631A6B42F480521A63C3
:104FA0001B6B03F480530193019B02B0F0E700BF39
:104FB0000030024082B00A4B1A6B42F001021A63C1
:104FC0001A6B02F001020092009A1A6B42F0020280
:104FD0001A631B6B03F002030193019B02B070473D
:104FE0000038024070B588B004460E4601462A4893
:104FF00002F06AF80022294901EBC6112046FFF7AA
:105000002FFE10F0FF011CD1244AF301D118043106
:10501000D058FFF7D7FED8B1214802F0C9F86C4646
:10502000204D0FCD0FC495E80F0084E80F00F30169
:1050300069461A4AD058FFF71BFFD8B1002008B0C4
:1050400070BD020A184802F03FF84FF0FF30F6E753
:10505000124CF601A059FFF7DDFE020AC1B2134857
:1050600002F032F8A059FFF76FFE0023A3516FF052
:105070000100E4E7094CF601A059FFF7CBFE020A54
:10508000C1B20B4802F020F8A059FFF75DFE0023E3
:10509000A3516FF00300D2E7E8900008500500200C
:1050A0004C9100084C9000080891000828910008D5
:1050B0006891000810B514464FF47A7392B2024812
:1050C000FFF7DEFB204610BD3C06002038B500236C
:1050D000002B0BDD002421460020FFF785FD05464F
:1050E00050B90134002DF6D1002038BDDA0100207E
:1050F000074988500133EBE70146064801F0E4FF19
:1051000021462846FFF76EFF0028EAD00025E8E791
:105110005005002088910008002A18BF002925D0DA
:10512000F0B58DB01446C301134AD6580EB30746E6
:105130000122ADF812200791ADF8022003946A46CF
:1051400004A93046FFF7E2FE012802D100200DB08D
:10515000F0BDF801084B1858FFF75CFE020AC1B217
:10516000064801F0B1FF4FF0FF30F0E74FF0FF309D
:1051700070474FF0FF30EAE750050020E491000847
:10518000F0B52DED028B85B0FFF7A0FF154C4FF069
:105190007E53236000236360134D2A46214600207E
:1051A000FFF7BAFF276866682868FDF743FB41EC04
:1051B000100B00F0DBF9B0EE408AF0EE608A384662
:1051C000FDF738FB04460D468DED028B3046FDF7AA
:1051D00031FBCDE9000122462B46044801F074FF63
:1051E000FEE700BF300600203806002008920008C5
:1051F00030B5B5B03022002128A801F0F1FA002422
:10520000239424942594269427948422214602A84A
:1052100001F0E6FA1E4B1A6C42F080521A641B6CC5
:1052200003F080530093009B1A4B1A6842F44042EB
:105230001A601B6803F440430193019B02252895E3
:1052400001232B9310232C932E952F940823309316
:10525000D82331933295339528A8FEF7D3FAFEF779
:1052600093FA0F232393249525944FF4A053269368
:105270004FF480532793072123A8FEF7FFFC402318
:105280000293139402A8FEF7D1FD35B030BD00BFE4
:10529000003802400070004008B5BFF34F8FBFF3E5
:1052A0006F8F234B0021C3F85012BFF34F8FBFF312
:1052B0006F8F5A6942F400325A61BFF34F8FBFF3C8
:1052C0006F8FC3F88410BFF34F8FD3F88040C4F3BF
:1052D0004E300FE01A4643F6E07303EA401343EA08
:1052E00082731349C1F86032531E002AF2D1431E63
:1052F00018B11846C4F3C902EDE7BFF34F8F4B69ED
:1053000043F480334B61BFF34F8FBFF36F8FFEF7D2
:1053100053F8FFF76DFFFFF74DFEFFF71FFEFFF796
:105320005EFC044801F0D0FEFFF75DFCFFF728FFAC
:1053300000ED00E0289200087047000082B00A4BA0
:105340001A6C42F080521A641A6C02F08052009279
:10535000009A5A6C42F480425A645B6C03F48043B6
:105360000193019B02B07047003802407047FEE78E
:10537000FEE7FEE7FEE770477047704708B5FEF7A7
:105380002DF808BDF8B50D461746002405E06E1C43
:10539000AFF30080287001343546BC42F7DB384655
:1053A000F8BD000008B503460B4A126842B10A4A2C
:1053B000106803446A46934206D8074A136008BD42
:1053C0000649054A1160F2E701F0C6F90C230360B3
:1053D0004FF0FF3008BD00BFF8050020C0060020D8
:1053E0004FF0FF3070474FF400534B600020704780
:1053F000012070470020704710B40F4AD2F888305F
:1054000043F47003C2F888300C4B196841F0010175
:105410001960002098601C680949214019600949F9
:105420005960196821F480211960D8604FF0006339
:1054300093605DF8044B704700ED00E000380240D7
:10544000FFFFF6FE1030002408B50B480B4B03603D
:105450004FF41653436000238360C36003610C2242
:1054600042618361C36103624362FFF796FA00B948
:1054700008BDFFF761FFFBE73C060020001001407C
:1054800070B588B0002303930493059306930793A4
:10549000026803F1804303F588339A4201D008B0D3
:1054A00070BD03F594335A6C42F010025A645A6C82
:1054B00002F010020092009A1A6B42F002021A6384
:1054C0001A6B02F002020192019A1A6B42F0010279
:1054D0001A631B6B03F001030293029B8023039367
:1054E00002260496032506950724079403A9084875
:1054F000FEF75CF84FF400730393049600230593C2
:105500000695079403A90348FEF750F8C7E700BFC4
:105510000004024000000240DFF834D0002103E024
:105520000C4B5B58435004310B480C4B42189A42C9
:10553000F6D30B4A02E0002342F8043B094B9A429F
:10554000F9D3FFF759FF01F00DF9FFF7A5FE7047FA
:10555000000005204095000800000020F404002011
:10556000F4040020C0060020FEE70000F8B553EC6C
:10557000102BC3F30A54A4F2FF301328194610EE7F
:10558000106A12DC002832DB234D05412B421F46F6
:105590002AD04FF400210141394421EA05010024B9
:1055A0000B46224643EC102BF8BD332805DDB0F541
:1055B000806F22D043EC102BF8BDA4F213444FF0BF
:1055C000FF3525FA04F42242F4D00123C0F1330060
:1055D00003FA00F0801928BFC91820EA04040B461A
:1055E000224643EC102BF8BD002AD2D1E2E701306D
:1055F00003F0004109D00024D2E710EE100A19464A
:10560000FCF7BAFF41EC100BF8BD41F07F5141F4BB
:1056100040110024C4E700BFFFFF0F0010B582B0A7
:105620008DED010A019C24F00043B3F1FF4F0BDB29
:10563000002CF7EE007A29DBB0EE407A87EE870A7D
:1056400030EE270A02B010BD214A934207DDB7EEC3
:10565000000A002CB8BFB1EE400A02B010BDB3F191
:10566000105F1BDBB3F17E5F21DB00F0E7FF30EE64
:10567000000A00F0A9FEB0EE007A70EE076AF7EEBD
:10568000007A87EE260A37EEC00AE2E79DED017A3E
:1056900087EE870A30EE670A02B010BDDDED017AB1
:1056A000B7EE000A37EE800A20EE270ACAE700F0BC
:1056B000C5FFF8EE007A20EE270A00F085FEB0EE76
:1056C000007A30EE077AF1EE407A87EE870AC0E77B
:1056D000FFFFAF41D0B52DED028B374C8AB0B0EE55
:1056E000408A00F009FA94F900300133F0EE408A64
:1056F0003AD0B0EE480A00F0A9FF002834D0DFED20
:105700002F7AB4EEE78AF1EE10FA33DCDFED2C7A73
:10571000B4EEE78AF1EE10FA26D50423294A009365
:1057200018EE100A002308930192FDF783F894F90C
:10573000003000260027022BCDE90401CDE902014B
:10574000CDE9066733D0684600F0AAFD00282ED0C8
:10575000089B1BB101F000F8089B0360DDE906011E
:10576000FDF756FB08EE900AB0EE680A0AB0BDECF1
:10577000028BD0BD0323134A009318EE100A0023B6
:1057800008930192FDF756F894F90030CDE9040131
:10579000CDE902012BB90C4B4FF06042CDE9062355
:1057A000D1E70A490020022BCDE90601CBD100F058
:1057B000D3FF22230360CBE7200300208071B14296
:1057C000B5F1CFC234920008FFFFEF470000F07F31
:1057D000F0B52DED048BB34D8BB0F0EE408AB0EEFA
:1057E000608A00F061FA95F90040631CB0EE409ABF
:1057F0002ED0B4EE488AF1EE10FA29D6F4EE688A7B
:10580000F1EE10FA80F1A280F5EE408AF1EE10FA86
:1058100024D1B5EE408AF1EE10FA59D10123A24A03
:10582000009318EE900A002301920893FDF702F806
:10583000CDE9020118EE100AFCF7FCFF002200235C
:10584000CDE90401CDE90623002C67D0B7EE009A1C
:10585000B0EE490A0BB0BDEC048BF0BD00F0F6FED3
:105860000446002800F09180B5EE409AF1EE10FA5F
:10587000EED1B0EE680A00F0E9FE0028E8D0B0EE04
:10588000480A00F0E3FE0028E2D00423864A009391
:1058900018EE900A002308930192FCF7CBFFCDE9A4
:1058A000020118EE100AFCF7C5FF00260027CDE91B
:1058B0000401CDE9066795F90030022B03D0684654
:1058C00000F0EEFC80BB00F047FF222303602BE0DA
:1058D000B0EE480A00F0BAFE0028B9D0B5EEC08A92
:1058E000F1EE10FAB4D501236F4A009318EE900A36
:1058F000002308930192FCF79DFFCDE9020118EE09
:10590000100AFCF797FF95F90030CDE90401002B50
:1059100040F09B8000220023CDE90623684600F07A
:10592000BFFC002800F08C80089B1BB100F014FF26
:10593000089B0360DDE90601FDF76AFA09EE100A2B
:10594000B0EE490A0BB0BDEC048BF0BDB5EE408A59
:10595000F1EE10FA7FF47CAF0123534A009318EE66
:10596000900A002301920893FCF764FFCDE902013D
:1059700018EE100AFCF75EFF4C4B0022022CCDE91A
:105980000401CDE90623C9D160E7B0EE680A00F052
:105990005DFE00283FF468AFB0EE480A00F056FE06
:1059A00000283FF461AFB4EE499AF1EE10FA80F1AD
:1059B00087803D4B0894032218EE900A8DE80C0076
:1059C000FCF738FFCDE9020118EE100AFCF732FFB0
:1059D00095F90030CDE90401002B3DD1344BF5EEB3
:1059E000C08A4FF06042F1EE10FACDE906237FF550
:1059F00066AFF6EE007A68EE277A17EE900AFCF7AB
:105A000019FF06460F4647EC106B00F04BFC304682
:105A100053EC102B3946FDF7C9F900283FD1254931
:105A200095F900304FF06040CDE9060145E710469A
:105A30001946FDF77DF8022CCDE906017FF46EAF23
:105A400000F08AFE212303606EE71B490020022B31
:105A5000CDE90601F4D061E71849F5EEC08A0020CF
:105A6000F1EE10FACDE906017FF527AFF6EE007AE8
:105A700068EE277A17EE900AFCF7DCFE06460F4622
:105A800047EC106B00F00EFC304653EC102B3946FF
:105A9000FDF78CF918B9084B0022CDE9062395F9DA
:105AA00000300AE7200300203C9200080000F03F8D
:105AB000FFFFEF47FFFFEFC70000F0FF0000F07FA0
:105AC0000C4B0894012218EE900A8DE80C00FCF7AC
:105AD000B1FECDE9020118EE100AFCF7ABFE95F914
